{
  "contractName": "Project",
  "abi": [
    {
      "inputs": [
        {
          "internalType": "address payable",
          "name": "projectCreator",
          "type": "address"
        },
        {
          "internalType": "string",
          "name": "projectTitle",
          "type": "string"
        },
        {
          "internalType": "string",
          "name": "projectDescription",
          "type": "string"
        },
        {
          "internalType": "uint256",
          "name": "projectGoal",
          "type": "uint256"
        }
      ],
      "stateMutability": "nonpayable",
      "type": "constructor"
    },
    {
      "anonymous": false,
      "inputs": [
        {
          "indexed": false,
          "internalType": "address",
          "name": "contributor",
          "type": "address"
        },
        {
          "indexed": false,
          "internalType": "uint256",
          "name": "contribution",
          "type": "uint256"
        }
      ],
      "name": "Contribute",
      "type": "event"
    },
    {
      "anonymous": false,
      "inputs": [
        {
          "indexed": false,
          "internalType": "address",
          "name": "contractAddress",
          "type": "address"
        },
        {
          "indexed": false,
          "internalType": "address",
          "name": "fundator",
          "type": "address"
        },
        {
          "indexed": false,
          "internalType": "uint256",
          "name": "goal",
          "type": "uint256"
        },
        {
          "indexed": false,
          "internalType": "uint256",
          "name": "currentBalance",
          "type": "uint256"
        }
      ],
      "name": "ProjectFinished",
      "type": "event"
    },
    {
      "anonymous": false,
      "inputs": [
        {
          "indexed": false,
          "internalType": "address",
          "name": "contributor",
          "type": "address"
        },
        {
          "indexed": false,
          "internalType": "uint256",
          "name": "contribution",
          "type": "uint256"
        }
      ],
      "name": "ReturnContribution",
      "type": "event"
    },
    {
      "inputs": [],
      "name": "currentBalance",
      "outputs": [
        {
          "internalType": "uint256",
          "name": "",
          "type": "uint256"
        }
      ],
      "stateMutability": "view",
      "type": "function"
    },
    {
      "inputs": [],
      "name": "description",
      "outputs": [
        {
          "internalType": "string",
          "name": "",
          "type": "string"
        }
      ],
      "stateMutability": "view",
      "type": "function"
    },
    {
      "inputs": [],
      "name": "goal",
      "outputs": [
        {
          "internalType": "uint256",
          "name": "",
          "type": "uint256"
        }
      ],
      "stateMutability": "view",
      "type": "function"
    },
    {
      "inputs": [],
      "name": "title",
      "outputs": [
        {
          "internalType": "string",
          "name": "",
          "type": "string"
        }
      ],
      "stateMutability": "view",
      "type": "function"
    },
    {
      "inputs": [],
      "name": "seeOwner",
      "outputs": [
        {
          "internalType": "address",
          "name": "",
          "type": "address"
        }
      ],
      "stateMutability": "view",
      "type": "function"
    },
    {
      "inputs": [],
      "name": "showContributors",
      "outputs": [
        {
          "internalType": "address[]",
          "name": "",
          "type": "address[]"
        }
      ],
      "stateMutability": "view",
      "type": "function"
    },
    {
      "inputs": [],
      "name": "myContribution",
      "outputs": [
        {
          "internalType": "uint256",
          "name": "",
          "type": "uint256"
        }
      ],
      "stateMutability": "view",
      "type": "function"
    },
    {
      "inputs": [],
      "name": "seeContractBalance",
      "outputs": [
        {
          "internalType": "uint256",
          "name": "",
          "type": "uint256"
        }
      ],
      "stateMutability": "view",
      "type": "function"
    },
    {
      "inputs": [],
      "name": "contribute",
      "outputs": [],
      "stateMutability": "payable",
      "type": "function"
    },
    {
      "inputs": [],
      "name": "finishGoal",
      "outputs": [],
      "stateMutability": "nonpayable",
      "type": "function"
    },
    {
      "inputs": [],
      "name": "refundGoal",
      "outputs": [],
      "stateMutability": "nonpayable",
      "type": "function"
    }
  ],
  "bytecode": "0x60806040523480156200001157600080fd5b50604051620018f5380380620018f58339818101604052810190620000379190620003af565b836000806101000a81548173ffffffffffffffffffffffffffffffffffffffff021916908373ffffffffffffffffffffffffffffffffffffffff16021790555082600190805190602001906200008f929190620000c2565b508160029080519060200190620000a8929190620000c2565b5080600381905550600060048190555050505050620004c3565b828054620000d0906200048e565b90600052602060002090601f016020900481019282620000f4576000855562000140565b82601f106200010f57805160ff191683800117855562000140565b8280016001018555821562000140579182015b828111156200013f57825182559160200191906001019062000122565b5b5090506200014f919062000153565b5090565b5b808211156200016e57600081600090555060010162000154565b5090565b6000604051905090565b600080fd5b600080fd5b600073ffffffffffffffffffffffffffffffffffffffff82169050919050565b6000620001b38262000186565b9050919050565b620001c581620001a6565b8114620001d157600080fd5b50565b600081519050620001e581620001ba565b92915050565b600080fd5b600080fd5b6000601f19601f8301169050919050565b7f4e487b7100000000000000000000000000000000000000000000000000000000600052604160045260246000fd5b6200024082620001f5565b810181811067ffffffffffffffff8211171562000262576200026162000206565b5b80604052505050565b60006200027762000172565b905062000285828262000235565b919050565b600067ffffffffffffffff821115620002a857620002a762000206565b5b620002b382620001f5565b9050602081019050919050565b60005b83811015620002e0578082015181840152602081019050620002c3565b83811115620002f0576000848401525b50505050565b60006200030d62000307846200028a565b6200026b565b9050828152602081018484840111156200032c576200032b620001f0565b5b62000339848285620002c0565b509392505050565b600082601f830112620003595762000358620001eb565b5b81516200036b848260208601620002f6565b91505092915050565b6000819050919050565b620003898162000374565b81146200039557600080fd5b50565b600081519050620003a9816200037e565b92915050565b60008060008060808587031215620003cc57620003cb6200017c565b5b6000620003dc87828801620001d4565b945050602085015167ffffffffffffffff8111156200040057620003ff62000181565b5b6200040e8782880162000341565b935050604085015167ffffffffffffffff81111562000432576200043162000181565b5b620004408782880162000341565b9250506060620004538782880162000398565b91505092959194509250565b7f4e487b7100000000000000000000000000000000000000000000000000000000600052602260045260246000fd5b60006002820490506001821680620004a757607f821691505b602082108103620004bd57620004bc6200045f565b5b50919050565b61142280620004d36000396000f3fe60806040526004361061009c5760003560e01c806370b192321161006457806370b19232146101645780637284e4161461018f57806378cc0453146101ba578063a2dd6bfc146101d1578063ce845d1d146101fc578063d7bb99ba146102275761009c565b806301a44eff146100a15780632cf08ffe146100cc57806340193883146100f75780634066a4e7146101225780634a79d50c14610139575b600080fd5b3480156100ad57600080fd5b506100b6610231565b6040516100c39190610c83565b60405180910390f35b3480156100d857600080fd5b506100e161025a565b6040516100ee9190610cb7565b60405180910390f35b34801561010357600080fd5b5061010c610262565b6040516101199190610cb7565b60405180910390f35b34801561012e57600080fd5b50610137610268565b005b34801561014557600080fd5b5061014e610440565b60405161015b9190610d6b565b60405180910390f35b34801561017057600080fd5b506101796104ce565b6040516101869190610e4b565b60405180910390f35b34801561019b57600080fd5b506101a461055c565b6040516101b19190610d6b565b60405180910390f35b3480156101c657600080fd5b506101cf6105ea565b005b3480156101dd57600080fd5b506101e66108de565b6040516101f39190610cb7565b60405180910390f35b34801561020857600080fd5b50610211610925565b60405161021e9190610cb7565b60405180910390f35b61022f61092b565b005b60008060009054906101000a900473ffffffffffffffffffffffffffffffffffffffff16905090565b600047905090565b60035481565b60008054906101000a900473ffffffffffffffffffffffffffffffffffffffff1673ffffffffffffffffffffffffffffffffffffffff163373ffffffffffffffffffffffffffffffffffffffff16146102f6576040517f08c379a00000000000000000000000000000000000000000000000000000000081526004016102ed90610eb9565b60405180910390fd5b600354600454101561033d576040517f08c379a000000000000000000000000000000000000000000000000000000000815260040161033490610f25565b60405180910390fd5b60008054906101000a900473ffffffffffffffffffffffffffffffffffffffff1673ffffffffffffffffffffffffffffffffffffffff166108fc6003549081150290604051600060405180830381858888f193505050501580156103a5573d6000803e3d6000fd5b507f9d6b205b919c78ef6b4fe192b45e7180f246974c5c2593d716b45a2fba15d2173060008054906101000a900473ffffffffffffffffffffffffffffffffffffffff166003546004546040516103ff9493929190610fa4565b60405180910390a160008054906101000a900473ffffffffffffffffffffffffffffffffffffffff1673ffffffffffffffffffffffffffffffffffffffff16ff5b6001805461044d90611018565b80601f016020809104026020016040519081016040528092919081815260200182805461047990611018565b80156104c65780601f1061049b576101008083540402835291602001916104c6565b820191906000526020600020905b8154815290600101906020018083116104a957829003601f168201915b505050505081565b6060600680548060200260200160405190810160405280929190818152602001828054801561055257602002820191906000526020600020905b8160009054906101000a900473ffffffffffffffffffffffffffffffffffffffff1673ffffffffffffffffffffffffffffffffffffffff1681526020019060010190808311610508575b5050505050905090565b6002805461056990611018565b80601f016020809104026020016040519081016040528092919081815260200182805461059590611018565b80156105e25780601f106105b7576101008083540402835291602001916105e2565b820191906000526020600020905b8154815290600101906020018083116105c557829003601f168201915b505050505081565b60008054906101000a900473ffffffffffffffffffffffffffffffffffffffff1673ffffffffffffffffffffffffffffffffffffffff163373ffffffffffffffffffffffffffffffffffffffff1614610678576040517f08c379a000000000000000000000000000000000000000000000000000000000815260040161066f90610eb9565b60405180910390fd5b60005b6006805490508110156108a4576006818154811061069c5761069b611049565b5b9060005260206000200160009054906101000a900473ffffffffffffffffffffffffffffffffffffffff1673ffffffffffffffffffffffffffffffffffffffff166108fc670de0b6b3a7640000600560006006868154811061070157610700611049565b5b9060005260206000200160009054906101000a900473ffffffffffffffffffffffffffffffffffffffff1673ffffffffffffffffffffffffffffffffffffffff1673ffffffffffffffffffffffffffffffffffffffff1681526020019081526020016000205461077191906110a7565b9081150290604051600060405180830381858888f1935050505015801561079c573d6000803e3d6000fd5b507f3299806345de5640fc13385d719b90d1827f64a937ea332948eb4e683df6734b600682815481106107d2576107d1611049565b5b9060005260206000200160009054906101000a900473ffffffffffffffffffffffffffffffffffffffff16600560006006858154811061081557610814611049565b5b9060005260206000200160009054906101000a900473ffffffffffffffffffffffffffffffffffffffff1673ffffffffffffffffffffffffffffffffffffffff1673ffffffffffffffffffffffffffffffffffffffff16815260200190815260200160002054604051610889929190611101565b60405180910390a1808061089c9061112a565b91505061067b565b5060008054906101000a900473ffffffffffffffffffffffffffffffffffffffff1673ffffffffffffffffffffffffffffffffffffffff16ff5b6000600560003373ffffffffffffffffffffffffffffffffffffffff1673ffffffffffffffffffffffffffffffffffffffff16815260200190815260200160002054905090565b60045481565b60008054906101000a900473ffffffffffffffffffffffffffffffffffffffff1673ffffffffffffffffffffffffffffffffffffffff163373ffffffffffffffffffffffffffffffffffffffff16036109b9576040517f08c379a00000000000000000000000000000000000000000000000000000000081526004016109b0906111e4565b60405180910390fd5b600034116109fc576040517f08c379a00000000000000000000000000000000000000000000000000000000081526004016109f390611250565b60405180910390fd5b670de0b6b3a7640000600454600354610a159190611270565b610a1f91906110a7565b341115610a61576040517f08c379a0000000000000000000000000000000000000000000000000000000008152600401610a5890611316565b60405180910390fd5b670de0b6b3a764000034610a759190611365565b60046000828254610a869190611396565b92505081905550670de0b6b3a764000034610aa19190611365565b600560003373ffffffffffffffffffffffffffffffffffffffff1673ffffffffffffffffffffffffffffffffffffffff1681526020019081526020016000206000828254610aef9190611396565b92505081905550610aff33610b3a565b7f906faaf913a60f38b5e8f2d6f5b163239bac2d994fa1a5d21751a51587a940573334604051610b30929190611101565b60405180910390a1565b6000805b600680549050811015610bd4578273ffffffffffffffffffffffffffffffffffffffff1660068281548110610b7657610b75611049565b5b9060005260206000200160009054906101000a900473ffffffffffffffffffffffffffffffffffffffff1673ffffffffffffffffffffffffffffffffffffffff1603610bc157600191505b8080610bcc9061112a565b915050610b3e565b5080610c3e576006829080600181540180825580915050600190039060005260206000200160009091909190916101000a81548173ffffffffffffffffffffffffffffffffffffffff021916908373ffffffffffffffffffffffffffffffffffffffff1602179055505b5050565b600073ffffffffffffffffffffffffffffffffffffffff82169050919050565b6000610c6d82610c42565b9050919050565b610c7d81610c62565b82525050565b6000602082019050610c986000830184610c74565b92915050565b6000819050919050565b610cb181610c9e565b82525050565b6000602082019050610ccc6000830184610ca8565b92915050565b600081519050919050565b600082825260208201905092915050565b60005b83811015610d0c578082015181840152602081019050610cf1565b83811115610d1b576000848401525b50505050565b6000601f19601f8301169050919050565b6000610d3d82610cd2565b610d478185610cdd565b9350610d57818560208601610cee565b610d6081610d21565b840191505092915050565b60006020820190508181036000830152610d858184610d32565b905092915050565b600081519050919050565b600082825260208201905092915050565b6000819050602082019050919050565b610dc281610c62565b82525050565b6000610dd48383610db9565b60208301905092915050565b6000602082019050919050565b6000610df882610d8d565b610e028185610d98565b9350610e0d83610da9565b8060005b83811015610e3e578151610e258882610dc8565b9750610e3083610de0565b925050600181019050610e11565b5085935050505092915050565b60006020820190508181036000830152610e658184610ded565b905092915050565b7f4f6e6c79207468652063726561746f722063616e20646f207468697300000000600082015250565b6000610ea3601c83610cdd565b9150610eae82610e6d565b602082019050919050565b60006020820190508181036000830152610ed281610e96565b9050919050565b7f54686520676f616c20686173206e6f74206265656e2072656163686564000000600082015250565b6000610f0f601d83610cdd565b9150610f1a82610ed9565b602082019050919050565b60006020820190508181036000830152610f3e81610f02565b9050919050565b6000819050919050565b6000610f6a610f65610f6084610c42565b610f45565b610c42565b9050919050565b6000610f7c82610f4f565b9050919050565b6000610f8e82610f71565b9050919050565b610f9e81610f83565b82525050565b6000608082019050610fb96000830187610c74565b610fc66020830186610f95565b610fd36040830185610ca8565b610fe06060830184610ca8565b95945050505050565b7f4e487b7100000000000000000000000000000000000000000000000000000000600052602260045260246000fd5b6000600282049050600182168061103057607f821691505b60208210810361104357611042610fe9565b5b50919050565b7f4e487b7100000000000000000000000000000000000000000000000000000000600052603260045260246000fd5b7f4e487b7100000000000000000000000000000000000000000000000000000000600052601160045260246000fd5b60006110b282610c9e565b91506110bd83610c9e565b9250817fffffffffffffffffffffffffffffffffffffffffffffffffffffffffffffffff04831182151516156110f6576110f5611078565b5b828202905092915050565b60006040820190506111166000830185610c74565b6111236020830184610ca8565b9392505050565b600061113582610c9e565b91507fffffffffffffffffffffffffffffffffffffffffffffffffffffffffffffffff820361116757611166611078565b5b600182019050919050565b7f596f752063616e277420636f6e7472696275746520746f20796f7572206f776e60008201527f2070726f6a656374000000000000000000000000000000000000000000000000602082015250565b60006111ce602883610cdd565b91506111d982611172565b604082019050919050565b600060208201905081810360008301526111fd816111c1565b9050919050565b7f596f752063616e277420636f6e74726962757465203020657468657200000000600082015250565b600061123a601c83610cdd565b915061124582611204565b602082019050919050565b600060208201905081810360008301526112698161122d565b9050919050565b600061127b82610c9e565b915061128683610c9e565b92508282101561129957611298611078565b5b828203905092915050565b7f596f752063616e277420636f6e74726962757465206d6f7265207468616e207460008201527f686520676f616c00000000000000000000000000000000000000000000000000602082015250565b6000611300602783610cdd565b915061130b826112a4565b604082019050919050565b6000602082019050818103600083015261132f816112f3565b9050919050565b7f4e487b7100000000000000000000000000000000000000000000000000000000600052601260045260246000fd5b600061137082610c9e565b915061137b83610c9e565b92508261138b5761138a611336565b5b828204905092915050565b60006113a182610c9e565b91506113ac83610c9e565b9250827fffffffffffffffffffffffffffffffffffffffffffffffffffffffffffffffff038211156113e1576113e0611078565b5b82820190509291505056fea264697066735822122068962bc4cea09e0ff302e131f07dd482ffe1b08b7228c555fab46ea2b409d68f64736f6c634300080e0033",
  "immutableReferences": {},
  "source": "// SPDX-License-Identifier: MIT\r\npragma solidity >=0.4.22 <0.9.0;\r\n\r\ncontract Project {\r\n    address payable creator;\r\n    string public title;\r\n    string public description;\r\n    uint public goal;\r\n    uint public currentBalance;\r\n\r\n    mapping(address => uint) contributors;\r\n    address[] private contributorsList;\r\n\r\n    event ProjectFinished(\r\n        address contractAddress,\r\n        address fundator,\r\n        uint goal,\r\n        uint currentBalance\r\n    );\r\n    \r\n    event ReturnContribution(\r\n        address contributor,\r\n        uint contribution\r\n    );\r\n\r\n    event Contribute(\r\n        address contributor,\r\n        uint contribution\r\n    );\r\n\r\n    modifier isCreator() {\r\n        require(msg.sender == creator, \"Only the creator can do this\");\r\n        _;\r\n    }\r\n\r\n    constructor(\r\n        address payable projectCreator,\r\n        string memory projectTitle,\r\n        string memory projectDescription,\r\n        uint projectGoal\r\n    ) {\r\n        creator = projectCreator;\r\n        title = projectTitle;\r\n        description = projectDescription;\r\n        goal = projectGoal;\r\n        currentBalance = 0;\r\n    }\r\n\r\n    function seeOwner() external view returns(address) {\r\n        return(creator);\r\n    }\r\n\r\n    function showContributors() external view returns(address[] memory) {\r\n        return(contributorsList);\r\n    }\r\n\r\n    function myContribution() external view returns(uint) {\r\n        return(contributors[msg.sender]);\r\n    }\r\n\r\n    function seeContractBalance() external view returns(uint) {\r\n        return(address(this).balance);\r\n    }\r\n\r\n    function addIfAddressNotExist(address contributor) private {\r\n        bool found = false;\r\n        for (uint i = 0; i < contributorsList.length; i++) {\r\n            if (contributorsList[i] == contributor) {\r\n                found = true;\r\n            }\r\n        }\r\n        if (!found) {\r\n            contributorsList.push(contributor);\r\n        }\r\n    }\r\n\r\n    function contribute() external payable {\r\n        require(msg.sender != creator, \"You can't contribute to your own project\");\r\n        require(msg.value > 0, \"You can't contribute 0 ether\");\r\n        require(msg.value <= ((goal - currentBalance) * 1 ether), \"You can't contribute more than the goal\");\r\n\r\n        currentBalance += msg.value / 1 ether;\r\n        contributors[msg.sender] += msg.value / 1 ether;\r\n        addIfAddressNotExist(msg.sender);\r\n\r\n        emit Contribute(msg.sender, msg.value);\r\n    }\r\n\r\n    function finishGoal() external isCreator {\r\n        require(currentBalance >= goal, \"The goal has not been reached\");\r\n\r\n        creator.transfer(goal);\r\n\r\n        emit ProjectFinished(\r\n            address(this),\r\n            creator,\r\n            goal,\r\n            currentBalance\r\n        );\r\n\r\n        selfdestruct(creator);\r\n    }\r\n\r\n    function refundGoal() external isCreator {\r\n        for (uint i = 0; i < contributorsList.length; i++) {\r\n            payable(contributorsList[i]).transfer(contributors[contributorsList[i]] * 1 ether);\r\n            emit ReturnContribution(\r\n                contributorsList[i],\r\n                contributors[contributorsList[i]]\r\n            );\r\n        }\r\n\r\n        selfdestruct(creator);\r\n    }\r\n}",
  "sourcePath": "C:\\Programing_Projects\\Blockchain_Projects\\crowdfunding-blockchain\\contracts\\Project.sol",
  "compiler": {
    "name": "solc",
    "version": "0.8.14+commit.80d49f37.Emscripten.clang"
  },
  "schemaVersion": "3.4.7",
  "updatedAt": "2022-06-17T13:37:05.235Z",
  "devdoc": {
    "kind": "dev",
    "methods": {},
    "version": 1
  },
  "userdoc": {
    "kind": "user",
    "methods": {},
    "version": 1
  }
}